:100000000C9434000C943E000C943E000C943E0082
:100010000C943E000C943E000C943E000C943E0068
:100020000C943E000C943E000C943E000C943E0058
:100030000C943E000C943E000C943E000C943E0048
:100040000C943E000C943E000C943E000C943E0038
:100050000C943E000C943E000C943E000C943E0028
:100060000C943E000C943E0011241FBECFEFD8E04C
:10007000DEBFCDBF0E9440000C9467000C940000CE
:1000800084B1866084B98FEF91E09093890080936A
:10009000880080918000806880938000809180003B
:1000A00083608093800080918100826080938100D2
:1000B00018990BC02A9A2FEF83ED90E321508040CE
:1000C0009040E1F700C00000F3CF2A98F4CFF894F5
:0200D000FFCF60
:00000001FF
